:020000040000FA
:10000000E00B002049680000D53400003B1F0000D1
:100010003B1F00003B1F00003B1F00003B1F000078
:100020000000000000000000000000005568000013
:100030003B1F000000000000193F0000916C000011
:10004000FFBA0000D1BB000087BB000095BA0000DA
:10005000299B00009D9D0000B99C0000E9960000CE
:100060006DB9000051B80000FFBA0000D1BB00001C
:1000700087BB000095BA0000F3940000FFBA0000AF
:10008000D1BB000087BB000095BA0000FFBA00009A
:10009000D1BB000087BB000095BA00000000000043
:1000A0000000000000000000000000000000000050
:1000B0000000000000000000000000003333333374
:1000C0003333134000000000000000000000000077
:1000D0000000000000000000000000003333333354
:1000E000333313400000000000000000333333338B
:1000F00033331340333333333333134000000000C2
:1001000000000000010101010101010101000000E6
:10011000F401000072620100411F00001120000084
:10012000B51F0000400035004000350040000C00C5
:1001300050000C000101010041000000000000001F
:1001400000000000000000000000000000000000AF
:10015000000000000000000000000000000000009F
:10016000000000000000000000000000000000008F
:10017000000000000000000000000000000000007F
:100370000000000000000000A1000000F76701007D
:10038000A2000000F0670100A3000000FE6701006A
:10039000EA000000E56701004200000000000000E4
:1003A000000000000000000000000000000000004D
:1003B000000000000000000000000000000000003D
:1003C000000000000000000000000000000000002D
:1003D000000000000000000000000000000000001D
:1005D0000000000050000000B1000000F7670100BB
:1005E000B2000000F0670100B3000000FE670100E8
:1005F000EB000000E5670100430000000000000080
:1006000000000000000000000000000000000000EA
:1006100000000000000000000000000000000000DA
:1006200000000000000000000000000000000000CA
:1006300000000000000000000000000000000000BA
:1008300000000000A0000000C1000000F7670100F8
:10084000C2000000F0670100C3000000FE67010065
:10085000EC000000E56701000000704100009643D5
:0808600000000000E7030100A5
:020000040000FA
:1008680040EA01039B0703D009E008C9121F08C02A
:10087800042AFAD203E011F8013B00F8013B521EAA
:10088800F9D27047D2B201E000F8012B491EFBD221
:1008980070470022F6E710B513460A460446194683
:1008A800FFF7F0FF204610BD10B5044604E00B78B2
:1008B80000F8013B03B1491C521EF8D2204610BD76
:1008C80030B504460020034600E05B1C934203D287
:1008D800E05CCD5C401BF8D030BD00000FB400B523
:1008E8008DB010A909900B9000914FF0FF300A903D
:1008F80000200C9005480690054807906A4609A80C
:100908000F9900F049FE0DB05DF814FBBD1500000D
:10091800DB1500002DE9FF5F1D464FF0FF3BD5E9D1
:10092800014691465F464FF00008A9697F1C01986F
:100938008847296A824688470028F6D1BAF1FF3FDE
:100948000CD024F4C064002E19DD600614D5BAF169
:100958002B0F09D0BAF12D0F0ED103E0584604B081
:10096800BDE8F09F44F48064A9697F1C019888471A
:10097800761E8246002E02DDBAF1300F03D0B9F19F
:10098800000F26D032E0A969761E44F400747F1C5B
:10099800019888478246002E05DDBAF1780F06D007
:1009A800BAF1580F03D0B9F1000F10D01EE0B9F119
:1009B800000F02D0B9F1100F18D1A969761E24F4DE
:1009C80000747F1C019888478246102002E00820A6
:1009D80000E00A20814609E008FB0908A969761E9B
:1009E80044F400747F1C019888478246002E05DD78
:1009F8004946504600F0BBFD0028EDDAE969019848
:100A08008847A00502D46FF00100A8E7E00725D1C8
:100A1800600613D5600502D5C8F1000000E0404625
:100A280029680A1D2A600968220501D5087015E0A1
:100A3800220701D5088011E008600FE02868011D31
:100A480029600068210502D580F8008006E02107AA
:100A580002D5A0F8008001E0C0F8008038467EE7A3
:100A68002DE9FF5FD2E901A74FF000089169994687
:100A78001446DDF838B0464601988847054659EAD5
:100A88000B0005D009E0A169761C01988847054646
:100A9800216A284688470028F5D1681C03D05FEAF8
:100AA800CA7005D015E04FF0FF3004B0BDE8F09FE4
:100AB8002068011D2160D0F800800AE05FEACA7052
:100AC80001D108F8015BA169761C7F1E019888474F
:100AD8000546002F1ADD681C18D0B9F1000F0DD09B
:100AE800E81705EBD060421120F01F0059F82210DA
:100AF8002A1A012090400142E0D107E0BBF1000F23
:100B0800DCD1216A284688470028D7D0E1690198B6
:100B18008847BBF1000F07D1002E05DD5FEACA70D8
:100B280002D1002188F80010A068B84203DDBBF1AB
:100B3800000F03D017B16FF00100B6E73046B4E7F5
:100B48002DE9FF4F087883B09946FF2805D0491C46
:100B58002D2804D00024002008E000200BE0012408
:100B6800F9E700EB800003EB4000491C0B78FF2BF2
:100B7800F7D104B1404200230293147819461D4668
:100B88002D2C01D02B2C04D1521C2D2C13D0002439
:100B98000294AA461478FF2C0FD00A25A3FB0578E7
:100BA80001FB05814FF0000C03FB0C11521CE319EB
:100BB8004AEB0101EEE70124EAE7814453EA010028
:100BC80002D019F5C87F06DA03980021C0E90011A0
:100BD80007B0BDE8F08F0025AE4E2F46DFF8B8828B
:100BE800184600F052FECDE90001B9F1000002DA22
:100BF800C9F1000400E004460023A74A1AEB030BDE
:100C080042EB045A12E0E00707D02A46334638463A
:100C1800414600F025FA074688462A4633461046DC
:100C2800194600F01DFA05460E466410002CEAD15C
:100C3800DDE90001B9F1000F5A46534606DA00F023
:100C480081FA3A46434600F07DFA05E000F008FADA
:100C58003A46434600F004FA029A0AB181F000418C
:100C6800039AC2E90001B3E72DE9FF4F1F468DB093
:100C7800D7E901464FF0FF382E2045464FF00009CE
:100C88000B90B9696D1C0E988847396A8246884767
:100C98000028F6D1BAF1FF3F0AD024F4D064002E20
:100CA80011DDBAF12B0F08D0BAF12D0F0BD102E0EC
:100CB800404611B08DE744F48064B9696D1C0E9804
:100CC80088478246761E6946600501D52D2000E0DA
:100CD8002B208DF8000001F1010B0DF1200809E02F
:100CE800B9696D1C0E98884782460F9844F40074C1
:100CF800761E0560002E02DDBAF1300FF0D00B9998
:100D08008A453ED144F0800406E00F99681CA9F199
:100D1800010944F400740860B9696D1C761E0E98C8
:100D2800884782463028F0D02BE00B998A4505D1B8
:100D3800200603D444F08004761E18E0504613F0D1
:100D480005FC08B30DF11302761EAAF1300044F435
:100D58000074934506D20BF8010B200607D5A9F1BC
:100D6800010003E0200602D409F101008146A00534
:100D780002D50F99681C0860B9696D1C0E988847E0
:100D88008246002ED1DC53E0002E51DDBAF1650F0A
:100D980002D0BAF1450F4BD1A00549D5B9696D1CF0
:100DA80024F44074761E0E9888478246002E0CDD87
:100DB8002B2804D0BAF12D0F07D144F48074B969F7
:100DC8006D1C0E9888478246761EE00501D52D21B8
:100DD80000E02B2108F8011BCDF82C8021E00DF153
:100DE8002901761E44F4007488450CD2AAF130001B
:100DF80010F0FF0088F8000002D10B99884509D946
:100E080008F1010806E0E00501D5244801E042F2B6
:100E18000F708146B9696D1C0E98884782460F98F5
:100E28000560002E04DD504613F090FB0028D6D153
:100E3800F9690E988847FF208BF8000088F80000B1
:100E48000020069007904B466A4608A906A8FFF7B7
:100E580077FEA00502D46FF001002AE714F0240FF2
:100E68000AD0E00714D1DDE906123868031D3B609B
:100E78000068C0E900120BE0DDE9060100F0D6FACF
:100E88000146E00704D13868021D3A600068016035
:100E980028460EE7000014400000F03FF1D8FFFF9D
:100EA8002DE9F05F93460F4680460446002611F070
:100EB800FFFFD0F80090824614F8015B2DB100F0D6
:100EC80049FB0068405DC007F6D12B2D02D02D2DBF
:100ED8001AD0641E0021CAF800105A463946204626
:100EE80000F088FB014627B13868A04201D1C7F855
:100EF8000080DAF80000022809D0CAF800907005CE
:100F080005D54842BDE8F09F46F48066E2E708460A
:100F1800F8E72DE9FE4F804681EA0300C00F0C4632
:100F2800009021F0004123F00045B8EB0200A941F0
:100F380005D24046214690461C460B46024623F001
:100F48000040104347D0270DC7F30A00C3F30A51E6
:100F58000290401A019040286BDAC3F3130040F462
:100F6800801B0098924620B10023D2EB030A63EB62
:100F78000B0B01985946C0F14002504600F0B9FAEF
:100F880006460D4650465946019A00F0D1FA10EB34
:100F980008006141002487EA115284EAE7731A4382
:100FA80040D0009A62B3019A012A4FEA075215DC31
:100FB800001B61EB02014FF0004202EA0752CDE943
:100FC8000042001C41F5801132462B4600F0A7FB79
:100FD80003B0BDE8F08F40462146F9E7001B61EBFE
:100FE8000201001C41F5801300185B412018A2F58E
:100FF800001747EB030140EAD570B6196D4111E0BF
:101008006D084FEA360645EAC0754FEA0752001BDD
:1010180061EB0201001C41F5801149084FEA3000DC
:101028000019514132462B4603B0BDE8F04F00F09D
:1010380067BB0098012240000023D0EB020263EB5B
:10104800E073009821464FEAE074B8EB000061EBCA
:101058000401E9E783F000435BE781F0004158E7CA
:101068002DE9FE4F81EA030404F0004421F0004119
:1010780000944FF0000B23F0004350EA01045ED0C7
:1010880052EA03045BD0C3F30A54C1F30A552C4453
:10109800A4F2F3340194A0FB0254C1F3130141F408
:1010A8008011C3F3130343F4801301FB024400FBD4
:1010B800034E840A970A44EA815447EA8357A4FBFB
:1010C800076802958D0A05FB07854FEA932C04FBF8
:1010D8000C542705029D4FEA065847EA1637B5EB28
:1010E80008056EEB070C870E920E47EA811742EA55
:1010F8008312A7FB0201B6EB0B0164EB00042B0D76
:1011080043EA0C335E1844EB1C50DA465146E7FBC1
:101118000201C5F313044FEA0B3343EA14534FEAB1
:101128000432019C43EA0603A4F10C040294009CD7
:10113800CDE900B400F0F3FA03B0BDE8F08F002069
:101148000146F9E72DE9F04D81EA030404F0004B6C
:1011580021F0004514464FF0000A23F0004150EA00
:10116800050220D054EA01021DD0C5F30A570246F1
:10117800C5F31303C1F31300C1F30A5640F48015F5
:1011880043F48013A7EB0608101BD64608F2FD3877
:1011980073EB050002D308F1010801E092185B41E6
:1011A800B8F1000F03DA00200146BDE8F08D0020F9
:1011B8004FF48011064684460EE0171B73EB0507B3
:1011C80005D3121B63EB050306434CEA010C4908DF
:1011D8004FEA300092185B4150EA0107EDD152EA1C
:1011E800030012D082EA040083EA0501084305D00F
:1011F800101BAB4106D20122002306E000224FF06B
:10120800004302E06FF0010253101AEB06004CEBAA
:10121800085110EB0A0041EB0B01BDE8F04D00F05E
:101228006FBA30B5041E71F1000404DB4FF00044BE
:10123800404264EB0101141E73F1000405DB1C46F7
:101248004FF00043524263EB0403801A994101D3E3
:10125800012030BD002030BD30B5041E71F10004FE
:1012680004DB4FF00044404264EB0101141E73F1AB
:10127800000405DB1C464FF00043524263EB0403B5
:10128800101A8B4101D2012030BD002030BD30B58D
:10129800041E71F1000404DB4FF00044404264EB8B
:1012A8000101141E73F1000405DB1C464FF00043D6
:1012B800524263EB0403101A8B4101D3012030BD65
:1012C800002030BD30B5041E71F1000404DB4FF07E
:1012D8000044404264EB0101141E73F1000405DB75
:1012E8001C464FF00043524263EB0403801A9941B5
:1012F80001D2012030BD002030BD30B5041E71F18F
:10130800000404DB4FF00044404264EB0101141E6A
:1013180073F1000405DB1C464FF00043524263EBB7
:10132800040342404B401A4301D0002030BD012045
:1013380030BD0EB5C10F80EAE0700844CA0700212D
:1013480040F233438DE80E000A460B4600F0E7F9F9
:1013580003B000BD0EB540F2334102910021CDE942
:1013680000110A460B4600F0DAF903B000BD3EB59D
:10137800CA17CB0F002450405140C0186141DA070A
:1013880040F233430094CDE901232246234600F07E
:10139800C6F903B030BD70B5C1F30A5201F000457B
:1013A8000024C1F3130140F2FF3341F480119A4243
:1013B80001DA002070BD40F233439A42A2F2334270
:1013C80003DC524200F0A4F800E090402C43F1D036
:1013D800404270BDC1F30A5210B5C1F3130140F287
:1013E800FF3341F480119A4201DA002010BD40F227
:1013F80033439A42A2F2334203DC524200F088F8A7
:1014080010BD904010BD00F0004230F000400AD0FE
:10141800C10D01F56071C0F3160042EA0151C2081E
:1014280040071143704700200146704701F0004310
:1014380030B421F0004150EA010206D00A0DA2F5AD
:101448006072C1F31301002A02DC30BC002070472F
:10145800440F44EAC104C100E01830BC00EBC2509C
:1014680000F017B930B50B460146002020220124B0
:1014780009E021FA02F59D4205D303FA02F5491B5A
:1014880004FA02F52844151EA2F10102F1DC30BD70
:101498002DE9F05F0546002092469B4688460646A1
:1014A800814640241BE0284641464746224600F034
:1014B8002FF853465A46C01A914110D31146184680
:1014C800224600F016F82D1A67EB01084F4622460F
:1014D8000120002100F00DF817EB00094E41201EF5
:1014E800A4F10104DFDC484631462A464346BDE8FC
:1014F800F09F202A04DB203A00FA02F1002070470E
:101508009140C2F1200320FA03F319439040704739
:10151800202A04DB203A21FA02F00021704721FA40
:1015280002F3D040C2F120029140084319467047A7
:10153800202A06DBCB17203A41FA02F043EAE0738F
:1015480006E041FA02F3D040C2F12002914008437C
:101558001946704700487047444F010010B50446CB
:10156800FFF7F8FF0068005D00F0010010BD3A28A1
:1015780000D2303820F02002412A01D3A2F13700EE
:10158800884201D34FF0FF307047000002681144D1
:101598001378016018467047D160044951610449C5
:1015A800116200211161114600F0C4B995150000BF
:1015B80065150000426842B1016811F8013B23B18A
:1015C800521EC0E90012184670470121C160881EEA
:1015D800704742685AB1C368016843B983688B424F
:1015E80005D0491E521CC0E90012002070474FF078
:1015F800FF3070472DE9F05F8246007800271546D6
:101608008B460AF10104B946302801D09DB113E098
:1016180014F8010B0127782803D0582801D045B1C8
:101628000AE00DB1102D07D10027102514F8010B81
:1016380002E0082500E00A250026B0460EE005FB7A
:10164800080005FB06F1012701EB10461FFA80F898
:10165800B6F5803F00D3B94614F8010B2946FFF7C9
:1016680086FF0028EBDABBF1000F05D00FB1641E2E
:1016780000E05446CBF80040B9F1000F06D011F055
:1016880017FC02210160C81EBDE8F09F48EA064029
:10169800FAE70029A8BF7047401C490008BF20F09E
:1016A8000100704710B4B0FA80FC00FA0CF050EA60
:1016B800010404BF10BC704749B1CCF1200421FAE1
:1016C80004F411FA0CF118BF012121430843A3EBDC
:1016D8000C01CB1D4FEA00614FEA102042BF0020E9
:1016E80010BC704700EBC35010440029A4BF10BCC5
:1016F8007047401C490008BF20F0010010BC70472B
:1017080010B5141E73F1000408DA401C41F1000101
:1017180092185B411A4301D120F0010010BD2DE958
:10172800F04D92469B4611B1B1FA81F202E0B0FA4F
:1017380080F220329046FFF7DCFE04460F4640EA6E
:101748000A0041EA0B0153465A46084313D0114692
:1017580053EA010019D0C8F140025046FFF7D8FEFD
:1017680005460E46504659464246FFF7C2FE084314
:1017780005D0012004E020463946BDE8F08D002060
:10178800054346EAE0762C4337430A986305E40AA2
:10179800A0EB08000022FD0A44EA47540A3002D5AB
:1017A80000200146E9E7010510196941DDE908450E
:1017B80000196941BDE8F04DA2E770B521F000437A
:1017C80003430CD0C1F30A550024D5EB040564EBA0
:1017D8000403D617AD1AB34102DB0020014670BDE1
:1017E800201841EB025170BD2DE9F04D00231A4637
:1017F8001B1A8A4103DB00200146BDE8F08DC1F3C6
:101808000A52C1F3130141F480154FF0000BD107C0
:1018180002D100186D41521E0027044640F2FF1104
:10182800384601EB620A3E468046024600204FF4E5
:101838008011FFF76DFEC2197141BB1846EB01001C
:10184800B4EB030C75EB000C04D3E41A65EB00054C
:1018580017460E46241908F101006D4180463428C8
:10186800E3DDF91946EB0600091BA84103D24FF046
:10187800FF32134601E0002213461BEB070046EB3C
:101888000A51BDE8F04DFFF73BBF0EB540F23342B9
:1018980002920022CDE900221346FFF740FF03B071
:1018A80000BDC1F30A52C1F3130140F2FF3341F402
:1018B80080119A4202DA00200146704740F2334311
:1018C8009A42A2F2334202DC5242FFF721BEFFF7EE
:1018D80010BE000030B5041E71F1000404DB4FF0A7
:1018E8000044404264EB0101141E73F1000405DB5F
:1018F8001C464FF00043524263EB04038B4208BF7F
:10190800824230BD30B5041E71F1000404DB4FF093
:101918000044404264EB0101141E73F1000405DB2E
:101928001C464FF00043524263EB0403994208BF40
:10193800904230BD2DE9F34F8BB04FF0000801F114
:101948000C000C464FF0010B46460DF1080A0190B9
:101958006269012101989047051E2DD0252D2CD0B4
:10196800216A8847C0B16269012101989047216ABC
:1019780088470028F7D1411E62690198904700E026
:10198800761CA1690B988847216A88470028F7D1F7
:10199800E1690B988847DBE7A1690B9888470746F8
:1019A800A84201D1761CD3E7E1690B9888477F1CD0
:1019B80002D1B8F1000F6FD046E1002762693D46B9
:1019C8003946019890472A2804D162690121019873
:1019D80090470125DFF884926269012101989047B8
:1019E800A0F130010A290AD24F45E5DC07EB87014F
:1019F80000EB4107303FDFD445F01005ECE7E9067E
:101A080001D46FF000476C280AD04C2814D06828FD
:101A180015D06A280DD074281CD07A281AD01DE059
:101A280062690121019890476C2802D045F00405AD
:101A380014E045F002050DE045F020050AE0626972
:101A4800012101989047682802D045F0080505E073
:101A580045F400656269012101989047C4E901577E
:101A680065283DD019DC58287AD00CDC452837D0B9
:101A780004DC252826D0412831D131E046282FD052
:101A880047282CD12CE05B2877D0612828D0632800
:101A98007CD0642823D15AE0D0E06F2848D008DCF5
:101AA80066281DD067281BD0692821D06E2816D13A
:101AB80027E0702845D0732868D0752847D0782843
:101AC8000DD14DE0A1690B988847054625283FF4BC
:101AD80069AFE1690B9888476D1C3FF46AAFB3E0C2
:101AE80023466A466FF001000B99FFF7BDF89EE0A8
:101AF80045F040006060A80723464FF0000236D446
:101B08003EE0E8077FF447AF2068011D21600068C8
:101B1800290501D506701BE7290701D5068017E7B7
:101B2800A90703D5F117C0E9006111E706600FE7BF
:101B380045F040006060A80723464FF0080216D41D
:101B48001EE040F60E0125EA0100606016E045F04F
:101B580040006060A80723464FF00A0207D40FE050
:101B680045F040006060A80708D5234610226FF0B2
:101B780001000B99AFF3008059E007E023461022DB
:101B88006FF001000B99FEF7C5FE50E04FF0000919
:101B98004F464B46632802D05B2806D040E0E80653
:101BA80001D40120A06001273AE06269012101986F
:101BB80090475E2805D14FF00109626949460198AE
:101BC8009047216939B900210A46534643F8212034
:101BD800491C0829FADBB0B3216969B9C11700EBC0
:101BE800D16253110AEB830122F01F02821A0120ED
:101BF8000B68904003430B6062690121019890478C
:101C08005D28E8D1B9F1000F09D00020514651F8FC
:101C18002020D24341F82020401C0828F7DB02ABE3
:101C2800224600976FF001000B99FEF719FF002874
:101C38000CDA401C08D1BBF1000F05D04FF0FF3083
:101C48000DB0BDE8F08FFFE74046F9E7E90701D19D
:101C580008F1010806444FF0000B79E6CCCCCC0C17
:101C68006AB32DE9F04381B0884641F69871C2F213
:101C7800000101EB0017144600254FF001096E46DC
:101C88003868C168006889688847CDF8009000BF47
:101C98003868C16800684A69314690470098012849
:101CA800F6D0386808EB4502C16800688B690521E1
:101CB80098470135A542E3D101B0BDE8F0430020C3
:101CC8007047000080B584B041F2C820C2F200001D
:101CD800016844F648730131016042F2B0510220B4
:101CE800C2F20001CDE9000141F6297040F6104C1E
:101CF800C0F200000CA1C0F201034FF40072C2F25E
:101D0800000CCDF808C010F007FD40F60C41C2F2F7
:101D18000001086008B104B080BD0020002104B0B3
:101D2800BDE8804009F08BBC4361725F54687265FE
:101D38006164000006F024FE00204FF0000806F061
:101D4800A7FC41F2002541F2042641F27C7740F2DB
:101D5800BC7442F2A8599FED718A41F2085B41F2C6
:101D6800145AC2F20005C2F20006C2F20007C2F21B
:101D78000004C2F20009C2F2000BC2F2000A00BF5E
:101D880001200FF037FE2868082800F2B880DFE845
:101D980000F0052F111609495D1B820001200FF084
:101DA80029FEEDE741F20820C2F20000007806F0B3
:101DB800F3F95FE099ED000A05F080FE5AE099ED2D
:101DC800000A06F08FF955E038684FF0FF3110F03F
:101DD80077FB386894ED009A00210022002310F068
:101DE800C1F99BEC020AB0EE491A06F0F1F941E09C
:101DF80038684FF0FF3110F063FB386894ED009AB3
:101E080094ED01AA94ED02BA00210022002310F0FB
:101E1800A9F9B0EE490AF0EE4A0AB0EE4B1A06F0FC
:101E2800B5FC27E038684FF0FF3110F049FB3868FF
:101E380094ED009A00210022002310F093F999ED07
:101E4800000AF0EE490A05F07FFE13E038684FF00B
:101E5800FF3110F035FB386894ED009A002100221C
:101E6800002310F07FF99BEC020AB0EE491A06F045
:101E7800DFFA00BF30684FF0FF3110F021FB306807
:101E8800002100220023C5F8008010F06BF9002023
:101E980001F018FA74E7B0EE480A8AF8008005F0F5
:101EA8000DFE9AF80000C0B938684FF0FF3110F005
:101EB80007FB386894ED009A94ED02AA00210022ED
:101EC800002310F04FF9B0EE490AF0EE4A0A05F087
:101ED8002FFE9AF800000128E6D130684FF0FF3154
:101EE80010F0EEFA01F035FDB0EE480A002001F0DE
:101EF800B9FAB0EE480A012001F0B4FABFE7306839
:101F08004FF0FF3110F0DCFA306800210022002386
:101F1800C5F8008010F026F932E700BF0000000085
:101F280010B5044609F05AFB2046BDE81040FFF7FB
:101F380001BF00BE7047000010B5006888B145F6C3
:101F48008411C0F2010107C91268904704460FA026
:101F580006A1002C1CBF08464FF0FF3412F0AEFE5D
:101F680001E04FF0FF34204610BD00BF4661696CA8
:101F7800656420746F206F70656E20646576696390
:101F8800653A2069326334210D000000537563639C
:101F980065737320746F206F70656E206465766951
:101FA80063653A2069326334210D00002DE9F04160
:101FB80082B000688DF80710F8B145F68410C0F2B9
:101FC800010087680668BC68984615460DF1070148
:101FD800304601220123A04700F01CFD4FF4967003
:101FE800012103F0BEFA7F683046294642460023A5
:101FF8000024B84700F0F8FC01E04FF0FF34204619
:1020080002B0BDE8F08100002DE9F04381B08146BF
:10201800006880B11F4616460D46012B07D132785D
:102028004846294601B0BDE8F04300F033B87819B6
:10203800B0F5807F02D94FF0FF3028E02DB1082D90
:1020480005D3092F03D23C4605E0082FFBD905F03C
:102058000700C0F108045FFA84F84846294632466A
:10206800434600F035F8B7EB08070FD046442C4438
:102078003D46082F28BF0825E1B2484632462B4680
:1020880000F026F82C447F1B2E44F1D1002001B02B
:10209800BDE8F08310B582B00068A0B145F68410A1
:1020A800C0F2010041EA022182680068D2F808C043
:1020B800ADF806100DF10601022200230024E047C6
:1020C80000F0A8FC01E04FF0FF34204602B010BD3C
:1020D800006830B310B584B0082B1C4628BF08240C
:1020E80000200390CDF80900CDF80500CDF80100D7
:1020F8008DF800102BB16846013011462246FEF7D4
:10210800AFFB45F68410C0F2010081680068D1F881
:1021180008C0621C69460023E04728B14FF0FF3031
:102128000AE04FF0FF30704700F074FC08204FF4CD
:102138007A7103F016FA002004B010BD40F278005E
:10214800C2F200007047000070B582B00446002853
:102158004FF0FF3016D000266D46CDE9000000BFD5
:10216800F000C1B220462A460823FFF7B1FF28B97C
:10217800F0B201361E28F3D9002003E0F0B26FF068
:102188006301081A02B070BD2DE9F04FAFB0FFF738
:10219800D5FF0028039000F0D48032204FF47A71E4
:1021A80003F0DFF90020CDE92C005B20012566A6AD
:1021B800C0B204F075FB705D01352E2DF8D140F2E8
:1021C8009C0804AEC2F200080FF2AC19002200BF4E
:1021D80040F29C014FF41870C2F2000102FB001A91
:1021E80000200AF1040400250292CAE98D0000BF0C
:1021F800BAF83C0205EB850143189AB2FC2A15D3BC
:10220800304666A12B4610F027FE9DF8100018B343
:102218004FF0000BC0B204F043FB0BF1010B5FFA67
:102228008BF0305C0028F5D116E000BF0398002140
:10223800C7682D912C91D9B22CAA05234FF0000B19
:10224800B84768B15B200127C0B204F029FB19F830
:1022580007000137232FF7D101350A2DC8D13BE0FC
:1022680005204FF47A7103F07CF99DF8B400A0F1D1
:10227800FF0111F1FE0FEFD39DF8B110A1F19A0201
:1022880012F1990FE8D39DF8B2209DF8B3301202ED
:1022980042EA0141CA18002108EBC10393F84072D1
:1022A800874203D001310429F6D1D5E7D3F8441287
:1022B8000029D1D0C5EBC50004EBC00744F8302095
:1022C800381D3122FEF7F0FADAF8380287F835B00F
:1022D8000130CAF83802BFE7DAF838320027002B95
:1022E80048BF1F469AF8002013AC46F2D131204669
:1022F800C0F20101CAF83472009710F0ADFD9DF8E4
:102308004C0048B1002500BFC0B204F0C9FA01353D
:10231800E8B2205C0028F7D1029A08F51878013253
:10232800032A7FF455AF46F25E655B200124C0F2B4
:10233800010500BFC0B204F0B3FA285D01342B2CAC
:10234800F8D12FB0BDE8F08F5BCFB5CDB35D3A20A3
:10235800BFAACABCB4D320454550524F4D20BCD368
:10236800D4D8C9E8B1B8B3D6BEC3BBAFC0FACAB7F0
:102378002E2E2E0D0A0000005BBEAFB8E65D20458C
:102388004550524F4D20B6C1C8A1CAA7B0DCA3AC76
:10239800CCF8B9FDB8C3B2DB0D0A00005BBEAFB81C
:1023A800E65D20B5D8D6B720256420B3ACB3F6B720
:1023B800B6CEA7A3ACCCF8B9FDB2DB2025640D0AD4
:1023C8000000000010B540F6A84245F6243C41F252
:1023D8007031C2F20002C0F2010CC2F20001C2E97F
:1023E80001C1012100EB800082F8281045F6D43E97
:1023F80041F29031C0F2010EC2F2000102EBC004BA
:10240800C2E90BE1002360681370C2E90633C2E930
:102418000833C2E910339364D364D0E900014FF064
:10242800004CC2E904C3C2F838C0D36303F032FADF
:10243800606821690068490803F08AF9002807BF25
:102448000AA00021014602A0BDE8104010F0F4BC2B
:10245800456E636F6465725F496E69745F45727239
:102468006F72203A2025640D0A000000456E636FE4
:102478006465725F496E69745F4F4B203A2025642A
:102488000D0A0000000000002DE9F04F81B02DED8D
:10249800048B86B040F6A84700200125C2F2000749
:1024A80004AC4FF0000800BF00EB800007EBC0064B
:1024B800D6E90412706800685FEA52024FEA3101F7
:1024C80003F046F97068006803F016FC706821464E
:1024D800006803F016FC0498E907B0614FF00100AA
:1024E8004FF00005E0D106200FF084FA9FED340B81
:1024F8009FED371B51EC100B9FED330BCDE902100C
:1025080054EC100B56EC115B9FED338B9FED349B15
:102518004FF0000B4FF00009019000BF09EB890054
:1025280004A907EBC00ADAF80400006803F0E9FB25
:10253800DAF8040004990068CAF81C1003F0EAFBF2
:10254800DAE90601081A68F10001CAE90801FEF78C
:102558000EFFDDE90232FEF7F5FD02460B46FEF7F7
:10256800D8FC019A2346FEF77BFD2A463346FEF740
:1025780077FD53EC182BFEF7E5FD53EC192BFEF70E
:102588006FFD024641EC100B40F69840C2F2000085
:1025980000EBC9005FEACB734FF0010980ED000B37
:1025A8004FF0010BBAD010A00B4610F045FC06B056
:1025B800BDEC048B01B0BDE8F08F00BF00BF00BFC9
:1025C800000000000058CB401F85EB51B81E0940A1
:1025D8003333333333330B40FA7E6ABC7493783F1A
:1025E8007B14AE47E17AF23F25660D0A0000000031
:1025F8002DE9F04F81B02DED108BB4B01F46884601
:102608000029814677D092ED000BD7E900068DEDC1
:10261800200BD7E9024A92ED020B92ED0EEB8DEDFD
:102628001E0B92ED040B92ED10DB8DED1A0B92ED63
:10263800060B92ED12FB8DED180B92ED080B92ED47
:10264800149B8DED160B92ED0A0B92ED16BB8DEDDA
:102658001C0B92ED0C0B8DED140BFEF76AFE9FED33
:10266800DE0B55EC107B2B463A46FEF76BFD41EC32
:10267800180B3046FEF75DFE3A462B46FEF762FD24
:1026880041EC1A0B2046FEF754FE3A462B46FEF75D
:1026980059FD41EC1C0B5046FEF74BFE3A462B46C3
:1026A800FEF750FDB0EE4C5AB0EE4A7AB0EE4FAAA3
:1026B800B0EE483AB0EE4B8AB0EE4D4AF0EE6C5AA6
:1026C800F0EE6A7AF0EE6FAAF0EE683AF0EE6B8AF6
:1026D800F0EE6D4A9DED142B9DED1C6B9DED1E1BC0
:1026E8009DED16FB9DED18CB9DED1ABB9DED200BC6
:1026F80041EC1D0BDAE0FE68A6B13868002845D029
:102708007D68002D76D0B968002900F033819FEDEF
:10271800B43BB0EE437AB0EE435AF0EE637AF0EE93
:10272800635ABFE092ED000BA1CF8DED200B92ED27
:10273800020B92ED04BB8DED1E0B92ED0A0B92ED90
:1027480006CB92ED08FB92ED0CDB92ED0EEB92EDD1
:10275800108B8DED1C0BFEF7ECFD9FED9F0B54ECE1
:10276800106B23463246FEF7EDFC41EC190B284668
:10277800FEF7DFFD32462346FEF7E4FC41EC1A0B78
:102788003846FEF7D6FD3246234665E092ED060B45
:10279800D7E901048DED200B92ED080B92ED0ABBF1
:1027A8008DED1E0B92ED100B92ED0CCB92ED0EFB06
:1027B80092ED12DB92ED14EB92ED168B8DED1C0B66
:1027C800FEF7B7FD9FED840B55EC107B2B463A4680
:1027D800FEF7B8FC41EC190B2046FEF7AAFD3A4675
:1027E8002B46FEF7AFFC41EC1A0B3046FEF7A1FD75
:1027F8003A4630E092ED000B92ED04BB8DED200BD4
:1028080092ED020B92ED0CCB8DED1E0B92ED100BA1
:1028180092ED0EFB92ED12DB92ED14EB92ED168B1E
:102828008DED1C0BFEF785FD9FED6B0B55EC104BEA
:102838002B462246FEF786FC41EC190BB868FEF7DA
:1028480078FD22462B46FEF77DFC41EC1A0B3046FC
:10285800FEF76FFD22462B46FEF774FC9DED1E1B0E
:102868009DED200BB0EE4A7AB0EE493AB0EE484AF8
:10287800B0EE4D2A9DED1C6BB0EE4B8AB0EE419A3E
:10288800B0EE40AAF0EE6A7AF0EE693AF0EE684AE5
:10289800F0EE6D2A41EC150BF0EE6B8AF0EE619AC2
:1028A800F0EE60AAB0EE43DAF0EE63DA22A88DED1E
:1028B800022BB0EE4B2A8DED064B8DED085BB0EE8A
:1028C8004C4AB0EE4F5A12908DED04EB24A88DEDD2
:1028D8000AAB26A98DED0C9B28AE8DED0E8BF0EE84
:1028E8006B2AF0EE6C4AF0EE6F5ACDE900108DEDD0
:1028F80010DB2EA823AB31464A4606F049F80028DB
:102908002FD49DED320B9DED2C1B5BEC107BCA4642
:10291800C14654EC118B0546384659464246234673
:10292800FEF79AFC00281CBF5C46B84644EC108BA6
:10293800B9F1000F8AED040B18BF032D13D153EC26
:102948001B2B38465946FEF787FC00282EA818BFCF
:10295800064696E88F0076698AE88F00CAF8146000
:1029680001E04FF0FF35284634B0BDEC108B01B0C4
:10297800BDE8F08F92ED000B92ED04BB8DED200BBE
:1029880092ED020B92ED06CB8DED1E0B92ED0A0B2C
:1029980092ED08FB92ED12DB92ED14EB92ED168BA3
:1029A8008DED1C0BFEF7C5FC9FED0B0B54EC107B5B
:1029B80023463A46FEF7C6FB41EC190B2846FEF7BC
:1029C800B8FC3A462346FEF7BDFB41EC1A0B3046ED
:1029D800FEF7AFFC3A46D7E60000000000408F4003
:1029E8000000000000000000B0B541F20B24C2F264
:1029F8000004207850B9322501204FF47A7102F092
:102A0800B0FD207810B9013D2804F5D100202070D0
:102A1800B0BD0000B0B541F20C24C2F20004207829
:102A280050B9322501204FF47A7102F09AFD2078CE
:102A380010B9013D2804F5D100202070B0BD000078
:102A48002DE9F04F81B02DED048B41F2C85BC2F245
:102A5800000BDBF800004FF0FF310FF031FD41F2C1
:102A6800F819C2F20009D9F800004FF0FF310FF051
:102A780027FD46F2EC00C0F20100D0F800A08668FD
:102A880040F6F84441F20057C2F20004C2F20007CF
:102A9800002500BF7368504621460222984700BFB0
:102AA80038680028FCD03D6020785928F2D1607839
:102AB8005328EFD17368A51C50462946032298472E
:102AC80038680028FCD00020386094F804807368C7
:102AD80008F10202611D5046984700BF3868002877
:102AE800FCD0002038602179CA1C002115F8013B70
:102AF800013A19440844F9D140F6066308EB040288
:102B0800C2F2000357791970C9B28F42587040F069
:102B180095809179C0B2814240F09080052000BF35
:102B280054FA80F1C2B24978A25C51FA80F0402A86
:102B380000F10200F4D19FED4E8B41F2B05BA0EBA7
:102B480001090025C2F2000B0BEBC508002698ED21
:102B5800009B4F46F8B2205CB040FEF7EAFB024605
:102B68000B4651EC190BFEF7D4F941EC190B08365A
:102B7800202E07F10107EDD156EC18AB334652462B
:102B880009F10409FEF76CFA41EC100B0135032D2D
:102B980088ED000BD8D1052054FA80F1C2B24978EB
:102BA800A25C51FA80F0202A00F10200F4D1A0EBD7
:102BB800010B002541F2E010C2F2000000EBC5084D
:102BC8004FF0000998ED008B5F4600BFF8B2205C1B
:102BD80000FA09F0FEF7ADFB02460B4651EC180B64
:102BE800FEF797F941EC180B09F10809B9F1200F24
:102BF80007F10107EAD1524633460BF1040BFEF701
:102C08002FFA41EC100B0135032D88ED000BD1D1C3
:102C180041F2C850C2F200000068002100220023DF
:102C280000240FF09FFA41F2F810C2F20000006889
:102C38000021002200230FF095FA12E0DBF80000D3
:102C48000021002200230FF08DFAD9F8000000219E
:102C5800002200230FF086FA07A010F0EDF84FF0DD
:102C6800FF342046BDEC048B01B0BDE8F08F00BFF7
:102C78008DEDB5A0F7C6B03E726561645F6572728E
:102C88000000000080B501200FF06CF941F2C85136
:102C9800C2F20001086001200FF064F941F290517E
:102CA800C2F20001086001200FF05CF941F2F8114E
:102CB800C2F20001086046F2EC01C0F2010107C946
:102CC8001268BDE8804010472DE9F04F81B02DED26
:102CD8000A8B84B0FFF7B4FE41F2C850C2F200007C
:102CE80000684FF0FF310FF0EBFB41F29050C2F259
:102CF800000000684FF0FF310FF0E2FB9FEDC00BC2
:102D08009FEDBD8B55EC104B9FEDC10B9FEDBE9B0E
:102D180059EC108B4FF0000A41F2B050C2F200009B
:102D2800504490ED000B41F27850C2F2000050443C
:102D380090ED001B51EC100B53EC112BFEF78AF9A8
:102D4800064641EC100B41F29850C2F2000000EB2D
:102D58000A0B30468BED000B22462B460F46FEF73A
:102D6800B1FAB0EE480AF0EE680A50B93046394672
:102D780042464B46FEF78BFAB0EE490AF0EE690A76
:102D880048B953EC102B30463946FEF7C2F841ECEF
:102D9800100B8BED000B0AF1080ABAF1180FBBD122
:102DA80041F2C850C2F2000000680021002200234E
:102DB80000240FF0D7F941F29050C2F200000068E9
:102DC8000021002200230FF0CDF99FED93AB9FED7A
:102DD80094BB9FED958B00BF41F2D050C2F200002A
:102DE80000EBC40841F29850C2F2000000EBC400A6
:102DF80001940390A01C4FF0000A0524C0B2029071
:102E080098ED009B5FFA8AF0002843D0042863D12C
:102E180053EC1A2B56EC1B7B51EC190BDD0F65F3A9
:102E2800DF713A463346FEF71BF9FEF7D3FA4CF644
:102E3800CD4BCCF6CC4BA0FB0B01C34649F69A18F8
:102E4800C808C1F69918A0FB081202EB8201039A80
:102E5800A0EB410992ED000B3A4651EC100B65F3DB
:102E6800DF713346FEF7FCF8FEF7B4FA4CF6CD41B5
:102E7800CCF6CC41A0FB0101C808A0FB081202EB6C
:102E88008201D846A0EB4102914500F09E8002984D
:102E98000C2197E0039890ED00CB51EC190B59ECFD
:102EA8001C7B4B463A46FEF7DBF855EC1A6B2B4673
:102EB8003246FEF7ECF990B93846494632462B4679
:102EC800FEF7CAF90028029814BF2D222B220721E9
:102ED80000F068FC79E000BF039890ED00CB53EC5C
:102EE8001A2B59EC1B7B51EC190BDE0F66F3DF71C3
:102EF8003A464B46FEF7B4F8FEF76CFA054620460C
:102F0800FEF728FA41EC190BB0EE480AB0EE491A60
:102F1800F0EE680AF0EE691A10F0F2FA51EC100BB4
:102F2800FEF758FAB5FBF0F04CF6CD4BCCF6CC4B8F
:102F3800A0FB0B12D10801EB81013A46A0EB410539
:102F480051EC1C0B66F3DF714B46FEF789F8FEF770
:102F580041FAB0EE480AB0EE491AF0EE680AF0EE0F
:102F6800691A064610F0CCFA51EC100BFEF732FA4B
:102F7800B6FBF0F0A0FB0B12D10801EB8101A0EB2E
:102F88004100854221D0B0EE480AB0EE491AF0EE71
:102F9800680AF0EE691A10F0B3FA51EC100BFEF75C
:102FA80019FAB6FBF0F04CF6CD41CCF6CC41A0FBBB
:102FB8000112D10801EB8101A0EB41020AF10700DF
:102FC800C1B20298012300F07BFC013C0AF1010A1E
:102FD8007FF416AF0398019C90ED000B0134032C8D
:102FE80088ED000B7FF4F8AE04B0BDEC0A8B01B09D
:102FF800BDE8F08F00BF00BF00000000008076C071
:10300800000000000080664000000000008076405C
:1030180000000000008066C0000000000000000002
:10302800000000000000594000000000000024409B
:103038002DE9F04381B040F61068C2F20008D8F8D4
:10304800001041F25430C2F200006A4602F0F2FF6A
:10305800009840F608690128C2F200091BD141F224
:10306800543500276C46C2F200050026042E09F8E4
:10307800067016D008EB860022464168284602F002
:10308800D9FF009801360128F0D0721E0021042AC9
:1030980038BF012101E00026012119F806205AB1A4
:1030A800002706263046002F18BF0520042E18BF1B
:1030B800304601B0BDE8F083002818BF012081F038
:1030C80001010122084309F806201AD141F25437B8
:1030D80040F2F514C2F200076D4600BF58F82610FA
:1030E80038462A46013C02F0A5FF01200EF082FC7A
:1030F800009808B9012CF1D80027022CB8BF012785
:10310800D0E70027CEE780B540F610604FF4027C88
:1031180040F6051E40F2033240F20A63C2F2000094
:1031280040F20A21C0E900CEC0E90223016180BD56
:10313800F0B581B041F25435044600268027C2F22A
:10314800000500BF27FA06F000EA040228464FF4FB
:10315800C06102F080FF28464FF48371012202F01B
:103168007AFF28464FF48371002202F074FF01367B
:10317800082EE7D141F25434C2F20004204603215C
:10318800012202F068FF20460321002201B0BDE8B9
:10319800F04002F060BF0000B0B541F25434C2F212
:1031A800000420464FF4C061002202F054FF20467C
:1031B8004FF48371002202F04EFF204603210022C3
:1031C80002F049FF082500BF20464FF4C0610022E5
:1031D80002F041FF20464FF48371012202F03BFFC9
:1031E80020464FF48371002202F035FF013DEBD1F8
:1031F80041F25434C2F2000420460321012202F0B5
:103208002AFF204603210022BDE8B04002F023BF78
:1032180080B584B041F2C820C2F20000016844F6CB
:103228004C730131016042F6B0510120C2F2000135
:10323800CDE9000143F2932040F6286CC0F200006B
:103248000CA1C0F201034FF48072C2F2000CCDF859
:1032580008C00FF061FA40F62461C2F2000108606C
:1032680008B104B080BD0020002104B0BDE8804052
:1032780008F0E5B94C45445F546872656164000024
:10328800FFF78AFF00F00AF8FCE710B5044608F0DB
:10329800A5F92046BDE81040FFF7F2BFB0B544F6E7
:1032A80050756FF4C974C0F2010500BF281990F871
:1032B8009301FFF73DFF64200EF09CFB0134F5D32A
:1032C800B0BD000070B504464FF4FA700EF092FBE2
:1032D80045F6D820C0F2010004EB8401046845F2E9
:1032E800E300C0F201004518002600BF204640F662
:1032F8000401012202F0AFFEA85D00284FF4C87057
:1033080008BFC8200EF076FB204640F604010022D4
:1033180002F0A1FEC8200EF06DFB0136052EE5D1A6
:1033280070BD000070B540F69061C2F200010A78E5
:10333800002A40F69462C2F2000222D104234FF020
:10334800000E45F6844441F2B036137040F2032C67
:10335800C0F2010440F20225C2F20006C2F80CE0F5
:103368001376012302F1240E54609660C2E904C565
:103378004FF4017540F2054CC2E907468EE8281063
:103388000B7000EB400002EBC000D0E9014061681F
:1033980002F080FA18B1014603A00FF04DFD206835
:1033A800BDE8704002F0A8BC4572726F72203A20E6
:1033B80025640D0A000000002DE9F0412DED028B77
:1033C80084B000EB400040F69462C2F2000202EBC7
:1033D800C000B0EE408AD0E90258F0EE608A0229B7
:1033E80015D8D0E9043619A050F821201AA050F8B1
:1033F800217045F6D820C0F201000468194620461D
:1034080002F029FE204631463A4602F024FE01A980
:10341800284602F01EFA0398FDF79CFF02460B4669
:1034280051EC180BFDF71CFEFDF7D4FF48F21F51B5
:10343800C5F2EB11A0FB010149092846424602F0FA
:103448009AF904B0BDEC028BBDE8F08100000000E1
:103458000000000001000000000000000100000062
:1034680000000000B0B52DED028B10EE105A044696
:103478002846B0EE408AFDF7C6FFB5EE408A41EC1B
:10348800100BF1EE10FA02D12046002117E0B5EE3C
:10349800408AF1EE10FA02DD204601210FE0B5EE78
:1034A800408AF1EE10FAA4BFBDEC028BB0BD85F0E6
:1034B8000040FDF7A8FF41EC100B20460221BDECAF
:1034C800028BBDE8B040FFF777BF00002DE9F0415F
:1034D80046F22018C4F20008B8F80000B8F8201026
:1034E80041F2342501EA0006B7B20024C2F2000511
:1034F80027FA04F0C00704D055F8241009B1204673
:1035080088470134102CF3D1A8F81060BDE8F08189
:103518002DE9F04182B0002640270DF1060400BFD6
:103528005FFA86F840460021002500F014F900BF34
:1035380020460221ADF8067000F00EF8681C45B26E
:10354800B5F1FF3FF4DCB8F1070F06F1010624BF1F
:1035580002B0BDE8F081E3E770B50A4645F6D01140
:10356800C0F20101096803460846194600230024F1
:1035780002F0B4FC41F20A25C2F20005287848B9E5
:10358800642600BF01200EF035FA287810B9013EF4
:103598003004F7D12C7070BD80B582B045F6D010DC
:1035A800C0F20100D0E9000102F041FC64200EF0F5
:1035B80021FA4FF42E40ADF806000DF10600022165
:1035C800FFF7CAFF4FF45540ADF806000DF10600AD
:1035D8000221FFF7C1FF4FF40040ADF806000DF1DE
:1035E80006000221FFF7B8FF4FF42840ADF80600A7
:1035F8000DF106000221FFF7AFFF4FF47C50ADF844
:1036080006000DF106000221FFF7A6FF4FF4534014
:10361800ADF806000DF106000221FFF79DFF00201E
:10362800ADF806000DF106000221FFF795FF4FF4F3
:103638008040ADF806000DF106000221FFF78CFF6F
:103648004FF42140ADF806000DF106000221FFF706
:1036580083FF4FF44840ADF806000DF10600022143
:10366800FFF77AFF4FF45A40ADF806000DF1060057
:103678000221FFF771FF4FF49050ADF806000DF1ED
:1036880006000221FFF768FF4FF40140ADF806007D
:103698000DF106000221FFF75FFF4FF44F40ADF830
:1036A80006000DF106000221FFF756FF4FF45940BE
:1036B800ADF806000DF106000221FFF74DFF4FF4AB
:1036C8007140ADF806000DF106000221FFF744FF36
:1036D8004FF45B40ADF806000DF106000221FFF73C
:1036E8003BFF4FF44050ADF806000DF106000221F3
:1036F800FFF732FF4FF42440ADF806000DF1060045
:103708000221FFF729FF4FF42640ADF806000DF11E
:1037180006000221FFF720FF4FF40D40ADF8060028
:103728000DF106000221FFF717FF4FF4A050ADF886
:1037380006000DF106000221FFF70EFF4FF42F409F
:10374800ADF806000DF106000221FFF705FFFFF7AF
:10375800DFFE02B080BDB0B582B040F0B0000C46CC
:1037680000258DF803000DF1020002218DF80250AA
:10377800FFF7F2FE200910308DF8050001A802219C
:103788008DF80450FFF7E8FE04F00F008DF80700ED
:103798000DF1060002218DF80650FFF7DDFE02B09C
:1037A800B0BD00002DE9F04782B015466FF0010268
:1037B8004FEA400802EB40006FF0070202EBC1013C
:1037C800C0B25FFA81F94946FFF7C5FF45F2151007
:1037D800C0F2010000EB051A0024AAF50076402784
:1037E80001AD00BF305D02218DF8050028468DF837
:1037F8000470FFF7B1FE0134082CF3D1A8F10100E1
:10380800C0B24946FFF7A7FFAAF5FC750026402776
:103818000DF10604A85D02218DF8070020468DF8F9
:103828000670FFF799FE0136082EF3D102B0BDE805
:10383800F08700002DE9F04381B015466FF00102D2
:103848004FEA400802EB40006FF0070202EBC101AB
:10385800C0B25FFA81F94946FFF77DFF46F234208E
:10386800C0F2010000EB0517002640246D4600BF9A
:10387800B85D02218DF8010028468DF80040FFF759
:103888006BFE0136082EF3D1A8F10100C0B24946FB
:10389800FFF761FF07F10805002640270DF1020434
:1038A800A85D02218DF8030020468DF80270FFF70D
:1038B80053FE0136082EF3D101B0BDE8F0830000B5
:1038C8008BB32DE9F0474CF6CD4A1C4691460E467F
:1038D8000746A3F101080025CCF6CC4AE8430019B5
:1038E8000AD00120414600BF00EB800001398D421B
:1038F8004FEA4000F8D100E00120B9FBF0F0A0FB4E
:103908000A12D10801EB8101A0EB4100711940F0C6
:103918003000C2B2C9B23846FFF744FF0135A542AC
:10392800DCD1BDE8F0477047F0B581B01446127895
:103938006AB10D46064600277819C1B2D2B23046A0
:10394800FFF730FF0137F8B2225C002AF4D101B04A
:10395800F0BD10B540F68C40C2F2000000210160B5
:1039680040F67840C2F20000016040F68840C2F29A
:103978000000016040F67C40C2F20000016040F6A1
:103988008040C2F20000016040F6844040F6CC64FA
:10399800C2F20000C2F20004016004F11400182110
:1039A800FCF777FF04F144001821FCF772FF10BD03
:1039B8002DE9F04F81B02DED108B86B0B0EE418A25
:1039C800B0EE609AB0EE40AAFEF75EFD41F24C14EC
:1039D8008DED05AAC2F200048DED049A84ED008AEB
:1039E800FFF72EF841F2C855C2F2000528684FF0DB
:1039F800FF310EF065FD41F29057C2F200073868BA
:103A08004FF0FF310EF05CFD41F2B050C2F2000001
:103A180090ED040B51EC100BFDF708FD08EE100AB1
:103A280041F27850C2F2000090ED040B51EC100BFB
:103A3800FDF7FCFC00EE100A41F2341638EE400A9D
:103A48003868C2F20006002186ED000A0022002331
:103A58000EF088FB28680021002200230EF082FB6C
:103A680096ED002A9FEDE90AB4EE402AF1EE10FA2D
:103A780002DD9FEDE51A08E09FEDE61AB4EE412A53
:103A8800F1EE10FA05DA9FEDE21A32EE012A86ED20
:103A9800002A41F2381841F2401094ED003AC2F27F
:103AA8000008C2F2000098ED001A90ED004A33EECB
:103AB800422A31EE043AB4EE402A9FEDD64AF1EE9E
:103AC80010FA41F23C12B4EE442A4FF00001C2F25F
:103AD8000002C8BF0121F1EE10FA82ED001AB4EE1F
:103AE800402A4FF00002B8BF0122F1EE10FA80ED33
:103AF800003A88ED002A04DCB4EE442AF1EE10FA0C
:103B080028DA9FEDC15A9FEDC26A00BFC90708BFF6
:103B18005FEAC27206D0002906FE057A32EE072A4D
:103B280088ED002AB4EE402A0021F1EE10FAC8BF51
:103B38000121B4EE442A0022F1EE10FAB8BF0122A6
:103B4800B4EE402AF1EE10FAE0DCB4EE442AF1EECD
:103B580010FADBDB9FEDB00AB4EE403AF1EE10FA52
:103B680002DD80ED000A08E09FEDAC0AB4EE403AB1
:103B7800F1EE10FAB8BF80ED000A32EE410A9FED6F
:103B8800A88A41F2F81520EE080A41F2441130EEF5
:103B9800020AC2F20005C2F2000140F68C4481ED2F
:103BA800000A2868C2F200044FF0FF3184ED000AD1
:103BB8000EF086FC41F2E010C2F2000090ED040B1A
:103BC80051EC100BFDF732FC40F678462968C2F23A
:103BD8000006306008460021002200230EF0C2FAD9
:103BE80040F67C4140F68440C2F20001C2F2000077
:103BF80091ED003A90ED000A9FED872A33EE000A16
:103C080094ED001A96ED004AB4EE420A31EE441AD9
:103C180040F68042F1EE10FAC2F2000280ED000A8E
:103C280082ED003A81ED001A02DD80ED002A08E0FD
:103C38009FED7A2AB4EE420AF1EE10FAB8BF80ED91
:103C4800002A21EE081AB2EE040A40F68849B4EEBA
:103C5800401AC2F20009F1EE10FA89ED001A02DDED
:103C680089ED000A08E0BAEE040AB4EE401AF1EE53
:103C780010FAB8BF89ED000A9FED6A9A9FED6ADADB
:103C88009FED6AEA4FF0000ABFEE088A05A8BAEE6F
:103C980004AAB7EE08BAB2EE04CA002198ED000AE9
:103CA80001EB4102B4EE408A40F6CC63F1EE10FA23
:103CB800C2F20003B4EE4B0A3AFE090AF1EE10FA1A
:103CC80003EB021B3CFE000A41F24813C2F2000358
:103CD80099ED001A83ED000A40F69843C2F20003FA
:103CE80031EE001A9BED0B2A03EBC10122EE011AFB
:103CF80090ED000A91ED002B71EE00AA51EC120B29
:103D08001201CBED05AA0392FDF790FB00EE100A15
:103D1800DBED089A7AEEC0AA9BED020A3AEEE91AA0
:103D2800DBED098A21EE000ACBF81800CBED08AAD2
:103D380010EE100A9BED07FADBED04BACBED099AF9
:103D4800CBED0A8AFDF75FFB0446DBF80C000D4655
:103D5800FDF759FB06461AEE900A0F46FDF753FB8E
:103D680002460B4630463946FDF77AF922462B467D
:103D7800FDF7CFF839EEA90A04463AEEC00A0D4617
:103D880038EE800A20EE2B0A10EE100AFDF73BFBF6
:103D980002460B4620462946FDF7BBF8FDF746FBD1
:103DA80000EE100A40F6CC603FEE000A0399C2F21A
:103DB800000080FE4D0A405880FE0E0A8BED070A6F
:103DC800FFF750FB5FEACA704FF001014FF0010A9C
:103DD80004A83FF463AFDBF81400FDF714FB9FED74
:103DE800081B41EC100B53EC112B11A08DED000BAF
:103DF8000FF022F806B0BDEC108B01B0BDE8F08FD3
:103E0800000000000000F03F0000B4C3000034438D
:103E18000000B443000034C300004843000048C316
:103E2800CDCCCC3D000000000000C8420000C8C254
:103E380025662C25662C00002DE9F04381B0FEF79D
:103E480021FF00200025FEF7BDFA01204FF00108F0
:103E5800FEF7B8FA0020FFF765FA0120FFF762FACB
:103E680040F6CC67C2F200074FF07F564FF07C5403
:103E780007F110001C21C7E90055C7E90264FCF7E7
:103E880008FD4FF07E50C7E90B0807F140001C21E0
:103E9800C7E90D86FC63FCF7FCFC0020CBF68070BC
:103EA800F865FEF7CDFD41F2C858C2F20008D8F80F
:103EB80000004FF0FF310EF003FB41F29059C2F2BF
:103EC8000009D9F800004FF0FF310EF0F9FA41F27D
:103ED800B050C2F20000D0E9046490E88E0041F2CC
:103EE8007855C2F20005D9F8000085E88E00002157
:103EF800002200232E616C610EF034F9D8F800001E
:103F080000210022002301B0BDE8F0430EF02AB9D9
:103F18000F4B1968EFF309821EF0100F08BF22ED4E
:103F2800108A22E9F04FEFF30B8342F8043D0A6050
:103F38004FF0100080F31188BFF34F8FBFF36F8FDE
:103F48000DF0B8FE4FF0000080F3118807F0FCBABE
:103F5800C81600200000000040F63D70C2F20000C4
:103F68000078002800F0CF872DE9F04F81B02DEDC3
:103F7800068BA4B040F63D70C2F2000090A1052265
:103F8800FCF79EFC002800F08C8040F63D70C2F2E1
:103F980000008DA10622FCF793FC002800F0BC80ED
:103FA80040F63D74C2F2000489A120460622FCF7BF
:103FB80087FC002800F0B881206847F27251C2F2ED
:103FC8006E01884200F0E28140F63D70C2F20000C6
:103FD8000FF688110722FCF773FC002800F0018215
:103FE80040F63D70C2F200000FF61C710622FCF785
:103FF80067FC002800F0318240F63D70C2F20000F4
:104008000FF614710622FCF75BFC002800F06F83A2
:1040180040F63D70C2F200000FF604710522FCF76D
:104028004FFC002800F03E8440F63D70C2F20000CC
:104038000FF6F4610522FCF743FC002800F0928497
:1040480040F63D70C2F200000FF6E4610522FCF76D
:1040580037FC002800F0098540F63D70C2F20000E8
:104068000FF6D4610922FCF72BFC002800F0CC8560
:1040780040F63D70C2F200000FF6C8610522FCF759
:104088001FFC002800F090865B2001240FF6BC6519
:10409800C0B202F005FC285D0134282CF8D100F0EC
:1040A8002CBF20A821A9CDE9001040F63D7046F2AA
:1040B800D1711FAF0DF18F02C2F2000022ABC0F226
:1040C80001010297FCF70AFC052840F0F0801F9BCD
:1040D80040F29C079DF88F00C2F2000700214FF4C0
:1040E800187CDCB23B4601FB0CF6BE5D86420DD166
:1040F80001FB0C78002600BF03EBC60595F84022AB
:10410800A24200F0E4800136042EF5D101310329E2
:1041180003F51873E7D154E146F272350D200124F6
:10412800C0F20105C0B202F0BBFB285D0134312C9E
:10413800F8D146F2AF3846F23D36002406ADC0F25B
:104148000108C0F2010600BF40F29C024FF418714A
:10415800C2F2000204FB01F004FB012A125CDAF847
:10416800383246F251312846C0F201010A27009739
:104178000EF072FE9DF8180040B10027C0B202F0A0
:104188008FFB0137F8B2285C0028F7D1DAF83872CB
:104198000A2F0DD0002F25D1B42000BFC0B202F0E5
:1041A8007FFBF01901374078132FF7D16CE000BF7F
:1041B800DAF8349246F2BE46C0F20106059419E0D8
:1041C800736176653A0000007175657279000000C8
:1041D800636C65617200000000000000000034C3D9
:1041E8000000344346F2BE46C0F2010605943CDDA9
:1041F8004FF000090AF1040B002700BF46F267617F
:1042080007EB0900C6F2666150FB01F18A0802EB70
:10421800D1719AF8002001EB81010292A0EB4100D4
:104228003A46C0EBC0000BEBC00454F8040BC0F3D3
:104238000721C0F30743C0B2CDE900102846314634
:1042480003940EF009FE9DF8180048B1002400BF41
:10425800C0B202F025FB0134E0B2285C0028F7D197
:10426800DAF8380201378742C8DB059C46F23D364A
:104278003D200127C0F20106C0B202F011FB18F878
:1042880007000137222FF7D10134032C7FF45CAFEC
:1042980046F2A3353D200124C0F20105C0B202F068
:1042A800FFFA285D01342E2CF8D100F026BE46F224
:1042B800D0255B200124C0F2010500BFC0B202F086
:1042C800EFFA285D0134432CF8D100F016BED5F87A
:1042D8004462002E75D0DDE92013229ACDE9001042
:1042E80006AF46F27D41C0F20101384602960EF053
:1042F800B3FD9DF8180048B1002500BFC0B202F018
:10430800CFFA0135E8B2385C0028F7D1DDE92101A0
:1043180022460002334640EA0140209901434046C4
:1043280002F084FB00F0E9BDFDF708FF002874D017
:1043380046F2133604460D200125C0F2010600BFDF
:10434800C0B202F0ADFA705D01352A2DF8D12046D1
:10435800FDF7FAFE002800F0F68006AC46F20741A9
:104368000246C0F2010120460EF076FD9DF81800C5
:10437800002800F0C2850025C0B202F091FA01358C
:10438800E8B2205C0028F7D100F0B7BD40F63D70D8
:1043980046F2907121AF06AAC2F2000022ABC0F229
:1043A80001010097FCF79AFA032846D19DED060A09
:1043B800B5EE400AF1EE10FA80F2F5801FED7A0AA8
:1043C800FEE046F298255B200124C0F2010500BFFB
:1043D800C0B202F065FA285D0134382CF8D100F03B
:1043E8008CBD40F63D7046F29D7106AAC2F20000EF
:1043F80022ABC0F20101FCF771FA022840F0C38039
:104408009DED061AB5EE401AF1EE10FA80F2F2812F
:104418001FED8F0A8DED060AF5E146F289655B20EE
:104428000124C0F2010500BFC0B202F039FA285DCC
:1044380001342C2CF8D100F060BD46F235555B20D4
:104448000124C0F2010500BFC0B202F029FA285DBC
:1044580001342C2CF8D100F050BD40F63D7046F2E6
:10446800B271C2F2000006AAC0F20101FCF736FAE6
:10447800012840F0B1819DED060A1FEDA81AB4EE9F
:10448800410AF1EE10FA06DB1FEDAB1AB4EE410A51
:10449800F1EE10FA03DDB0EE410A8DED061A40F692
:1044A8009040C2F2000040F2033101600021017126
:1044B80040F6C460C2F2000003220260017140F2BB
:1044C8006800C2F20000027040F26A00C2F2000006
:1044D8000225057040F26E00C2F20000012404704B
:1044E80041F27450C2F2000041F204260170C2F297
:1044F800000640F26C0142F2A852C2F20001306894
:10450800C2F200020C7082ED000A4FF0FF310DF08C
:10451800D7FF41F20021C2F2000130680D6000218E
:10452800002200230DF01EFE46F26B755B20C0F2E0
:10453800010500BFC0B202F0B3F9285D01341A2C9E
:10454800F8D100F0DABC40F29C050024C2F2000564
:10455800281904304FF40E71FCF79BF904F5187410
:10456800B4F5E46FF4D146F22C655B200124C0F267
:10457800010500BFC0B202F093F9285D0134322C66
:10458800F8D100F0BABC46F2E7455B200124C0F23E
:10459800010500BFC0B202F083F9285D01342B2C5D
:1045A800F8D100F0AABC10EE100AFCF72CFF9FED22
:1045B800E00B53EC102BFCF734FE18B99FEDDE0A24
:1045C8008DED060A9DED220AB5EE400AF1EE10FACD
:1045D80002DA9FEDDA0A0CE010EE100AFCF713FF7E
:1045E8009FEDD30B53EC102BFCF71BFE18B99FED76
:1045F800D20A8DED220A9DED211A9FEDD10AB4EE63
:10460800401AF1EE10FA02DA8DED210A08E09FED6A
:10461800CD0AB4EE401AF1EE10FAC8BF8DED210AAA
:1046280041F27C74C2F2000420684FF0FF310DF0B3
:1046380047FF0698229940F2BC72C2F20002219B01
:10464800C2E90001206893600021002200230025B0
:104658000DF088FD40F69040C2F2000040F20321C0
:104668000160057140F6C460C2F2000003210160D8
:10467800057140F26800C2F20000017040F26A0061
:10468800C2F200000221017040F26E00C2F2000086
:104698000124047041F27450C2F20000057041F226
:1046A8000425C2F2000540F26C01C2F2000128683C
:1046B8000C704FF0FF310DF003FF41F20021C2F200
:1046C800000128680C600021002200230DF04AFD3B
:1046D80046F205755B20C0F2010500BFC0B202F0CA
:1046E800DFF8285D01341A2CF8D100F006BC40F63A
:1046F8003D7046F2BB71C2F2000006AAC0F2010189
:10470800FCF7ECF8012840F002819DED060A9FEDC8
:104718008C1AB4EE410AF1EE10FA06DB9FED891A05
:10472800B4EE410AF1EE10FA03DDB0EE410A8DED68
:10473800061A40F69040C2F2000040F203410160C0
:104748000021017140F6C460C2F200000325056033
:10475800017140F26800C2F20000057040F26A0080
:10476800C2F200000222027040F26E00C2F20000A3
:104778000124047041F27450C2F2000041F2042690
:104788000170C2F2000640F26C0142F2A853C2F274
:1047980000013068C2F200030C7083ED000A4FF08C
:1047A800FF310DF08DFE41F20021C2F200013068A8
:1047B8000D600021002200230DF0D4FC46F2517553
:1047C8005B20C0F2010500BFC0B202F069F8285DA5
:1047D80001341A2CF8D190E346F261555B2001248C
:1047E800C0F20105C0B202F05BF8285D0134242C48
:1047F800F8D182E39FED540AB4EE401AF1EE10FAB4
:10480800C8BF8DED060A9DED221A9FED4D0AB4EE44
:10481800401AF1EE10FA02DA8DED220A08E09FED57
:10482800490AB4EE401AF1EE10FAC8BF8DED220A1B
:1048380041F27C74C2F2000420684FF0FF310DF0A1
:104848003FFE069840F2BC71C2F20001229A08604D
:1048580020688A600021002200230DF083FC41F2C9
:104868000424C2F2000420684FF0FF310DF028FE46
:1048780041F200220821C2F20002206811600021E2
:10488800002200230DF06EFC46F21F755B20012408
:10489800C0F20105C0B202F003F8285D0134182CFB
:1048A800F8D12AE340F63D7046F2C971C2F2000021
:1048B80006AAC0F20101FCF711F8012840F0C780F0
:1048C80046F2C47106A8C0F201010522FBF7F8FF01
:1048D80000284FF0010400F0658246F28A7106A8AC
:1048E800C0F201010622FBF7EBFF002800F0B482BA
:1048F80046F232445B200025C0F20104C0B201F048
:10490800CFFF601901354078202DF7D1F5E246F246
:1049180085555B200124C0F2010500BFC0B201F03B
:10492800BFFF285D0134242CF8D1E6E200BF00BFA8
:1049380052B81E85EB3F8F405CFF794400000000B1
:10494800000034C3000034430000C84200BF00BF69
:104958007B14AE47E1FA23400AD71F41616C7761A7
:104968007973200040F63D7046F2AA71C2F2000049
:1049780006AAC0F20101FBF7B1FF012840F0368119
:104988009DED060A1FED121AB4EE410AF1EE10FA77
:1049980006DB1FED141AB4EE410AF1EE10FA03DD3E
:1049A800B0EE410A8DED061A40F69040C2F20000C2
:1049B80040F2036101600021017140F6C460C2F257
:1049C800000003220260017140F26800C2F2000098
:1049D800027040F26A00C2F200000222027040F245
:1049E8006E00C2F200000124047041F27450C2F259
:1049F800000041F204250170C2F2000540F26C018A
:104A080042F2A853C2F200012868C2F200030C70F7
:104A180083ED000A4FF0FF310DF052FD41F2002204
:104A28000521C2F20002286811600021002200233B
:104A38000DF098FB46F2EF655B20C0F20105C0B2AD
:104A480001F02EFF285D0134162CF8D155E246F20C
:104A580053455B200124C0F20105C0B201F020FFDC
:104A6800285D01342A2CF8D147E240F63D700FF258
:104A7800345106AAC2F2000022ABFBF72FFF02282E
:104A880040F082819DED06AA1FED548A8AFE089A9D
:104A980019EE100AFCF7B7FCB5EE40AA0446F1EE91
:104AA80010FA0D4608DB1FED560B204653EC102B71
:104AB8002946FCF7B6FB70B91FED5B0B204653EC9B
:104AC800102B2946FCF7FEFB1FED5D0A002809FEA6
:104AD800000A8DED060A9DED229A89FE088A18EED5
:104AE800100AFCF790FCB5EE409A0446F1EE10FA75
:104AF8000D4608DB1FED6A0B204653EC102B2946A8
:104B0800FCF78FFB70B91FED6E0B204653EC102B92
:104B18002946FCF7D7FB1FED700A002808FE000A9B
:104B28008DED220A41F21054C2F2000420684FF0C1
:104B3800FF310DF0C5FC0699229A41F20853C2F2E2
:104B480000032068C3E90012002100220023002589
:104B58000DF008FB40F69040C2F2000040F20371ED
:104B68000160057140F6C460C2F2000003210160D3
:104B7800057140F26800C2F20000017040F26A005C
:104B8800C2F200000221017040F26E00C2F2000081
:104B98000124047041F27450C2F20000057041F221
:104BA8000425C2F2000540F26C01C2F20001286837
:104BB8000C704FF0FF310DF083FC41F2002206210A
:104BC800C2F20002286811600021002200230DF0C3
:104BD800C9FA46F237755B20C0F20105C0B201F090
:104BE8005FFE285D01341A2CF8D186E146F2125591
:104BF8005B200124C0F20105C0B201F051FE285D1E
:104C08000134232CF8D178E140F63D70DFA106AAE3
:104C1800C2F2000022ABFBF761FE022840F00E81D1
:104C28009DED06AA9FEDDD8A8AFE089A19EE100A04
:104C3800FCF7E9FBB5EE40AA0446F1EE10FA0D4682
:104C480008DB9FEDB30B204653EC102B2946FCF7ED
:104C5800E8FA70B99FEDAE0B204653EC102B2946AD
:104C6800FCF730FB9FEDCE0A002809FE000A8DED07
:104C7800060A9DED229A89FE088A18EE100AFCF7AA
:104C8800C2FBB5EE409A0446F1EE10FA0D4608DB79
:104C98009FED9F0B204653EC102B2946FCF7C1FAD9
:104CA80070B99FED9B0B204653EC102B2946FCF75F
:104CB80009FB9FEDBB0A002808FE000A8DED220AB9
:104CC80041F21054C2F2000420684FF0FF310DF099
:104CD800F7FB0699229A41F20853C2F200032068B2
:104CE800C3E9001200210022002300250DF03AFA42
:104CF80040F69040C2F2000040F6030101600571E1
:104D080040F6C460C2F2000003210160057140F260
:104D18006800C2F20000017040F26A00C2F20000AE
:104D28000221017040F26E00C2F2000001240470FA
:104D380041F27450C2F20000057041F20425C2F23B
:104D4800000540F26C01C2F2000128680C704FF0B7
:104D5800FF310DF0B5FB41F200220721C2F200023B
:104D6800286811600021002200230DF0FBF946F2AB
:104D7800B5655B20C0F20105C0B201F091FD285D68
:104D88000134242CF8D1B8E046F2D0555B20012438
:104D9800C0F20105C0B201F083FD285D0134232C67
:104DA800F8D1AAE0012058E040F69040C2F2000095
:104DB80000250571056040F6C460C2F20000056078
:104DC800057140F26800C2F200000124047040F24C
:104DD8006A00C2F20000047040F26E00C2F20000E5
:104DE800047040F26C00C2F20000047041F274508A
:104DF80041F20426C2F20000C2F2000641F2145148
:104E08000570C2F2000130680C704FF0FF310DF0F0
:104E180057FB41F20021C2F2000130680D60002109
:104E2800002200230DF09EF95B2052A5C0B201F0CC
:104E380037FD285D0134162CF8D15EE046F2A955FD
:104E48005B200124C0F20105C0B201F029FD285DF4
:104E58000134272CF8D150E0002041F20821C2F299
:104E68000001087040F69040C2F2000040F2035181
:104E780001600021017140F6C460C2F20000032203
:104E88000260017140F26800C2F20000027040F254
:104E98006A00C2F200000222027040F26E00C2F202
:104EA8000000047041F27450C2F2000041F204257F
:104EB8000170C2F2000540F26C01C2F200012868DC
:104EC8000C704FF0FF310DF0FBFA41F20022042183
:104ED800C2F20002286811600021002200230DF0B0
:104EE80041F946F2D9655B20C0F20105C0B201F074
:104EF800D7FC285D0134162CF8D124B0BDEC068B04
:104F080001B0BDE8F04F7047617475726E20000003
:104F18007B14AE47E1FA2340727475726E2000006C
:104F2800646F6F7220000000636F6C6C20000000DB
:104F3800676F746F20000000676F746F636F6C6C2D
:104F48002000000073746F70000000005B537973D9
:104F580074656D204572726F725D3A20556E6B6E86
:104F68006F776E205465787420436F6D6D616E6441
:104F78002E0D0A005B4F4B5D20CDA3D6B9D6B8C124
:104F8800EED2D1D6B4D0D00D0A000000676F746F8E
:104F9800636F6C6C20256620256600000000000009
:104FA8000AD71F41676F746F2025662025660000A9
:104FB800062070478446C0E906130020CCF820205C
:104FC8007047B0B544684EF2801E6269E36A41F2E8
:104FD800185C0021CEF2000E002AC2F2000C81609B
:104FE800C1600ED402F01F04012505FA04F4550926
:104FF8004EF82540BFF34F8FBFF36F8F4CF8221048
:105008004468A16900290ED401F01F02012404FAA2
:1050180002F24C094EF82420BFF34F8FBFF36F8F75
:1050280000224CF82120D96900290ED401F01F0272
:10503800012404FA02F24C094EF82420BFF34F8FE2
:10504800BFF36F8F00224CF82120196A00290ED473
:1050580001F01F02012303FA02F24B094EF8232044
:10506800BFF34F8FBFF36F8F00224CF821200168E8
:1050780000220A82016844F20C030A80EFF31082CE
:10508800012181F310884068C4F2080300881D6874
:10509800C0F1100001FA00F028431860186882F384
:1050A80010880020B0BD000080B50269B2B14FEA97
:1050B800727C00226FF0170302F1010E2CFA02F243
:1050C800D207A3F102037246F6D00268D21A0A6028
:1050D800BCFA8CF27244C2F1210200E0002240685E
:1050E8004A60008801228A6000EB40024FF4B073E6
:1050F80003EB4202082303EB4000C1E903024FF02F
:10510800FF3048614BF27C10C4F27F0000684FF416
:105118007A6280B28A834861002080BD0620704789
:105128002DE9F04F81B00D46D5E90937CE6A4160C7
:105138004968836107622B88002704460020C4F26F
:10514800170706F1080207EB4323E0614F0307CA7C
:10515800236000284FF41073D5E90289D6E900EAE4
:1051680008BF07F580773F2808BF48F24023002A88
:1051780018BF4FF430731F43A782EFF310834FF02B
:10518800010B8BF310882A8800F03F0001F03F01E3
:1051980041EA002CC2F1100144F20C02C4F20802E8
:1051A80010680BFA01F188431060106883F31088C7
:1051B80046F2C0102268384010804FEAC931206892
:1051C80041EA4801A0F810C041EA4A112068224685
:1051D800C181206880F80CE0307E21680138B0FA7F
:1051E80080F0400981F8D000686995F8201006F031
:1051F800FFF8A86995F82110224606F0F9F8F06939
:1052080096F82410224606F0F3F8306A96F825102E
:10521800224606F0EDF844F243410020C5F2412150
:105228002061A16001B0BDE8F08F006800EB41008B
:10523800018C002011807047D0E9000300EB410089
:10524800018CD868012808BF090400201160704744
:10525800F0B50246D0E9000391E8700024F0C04E92
:10526800D3F82CC0848010684FEA1E4385821068EA
:1052780006811068C38049F6FF7000EA1543146878
:1052880000EA1640E382136858814EF22000C4F207
:105298000100006841F28C03C2F200031B68C0F3EE
:1052A8000264C0F30210A34023FA00F044F6D3537B
:1052B800C1F26203A0FB0303980941F2360300FB25
:1052C80003F04DF68363C4F21B33D1E90045A0FB1C
:1052D8000303980C06284FF0060088BF980C45EA8F
:1052E80004039C0000F1010001D4002423E00125FF
:1052F800EFF3108485F3108844F20C05C4F2080516
:105308002E6826F480062E602D6843F2000584F38B
:105318001088C4F20F0590262E7014684FF480751B
:1053280084F8DE00CC78A4068C6858BF4FF48065FA
:10533800C4F340742C445B000FD51368022583F82E
:10534800DF00C8788B6840064FF4007005EA537395
:1053580058BF4FF400601844044310684482C8687A
:1053680000283ED083681C051C4629D51468A4F87B
:10537800903084891568A5F89C40C4891568A5F8FB
:105388009E4004681568A5F8944049F6FF7505EA3B
:1053980014461768C4F34174A7F89660166886F82F
:1053A80092404468166805EA1445A6F898401668BD
:1053B800C4F34174A6F89A50156885F89340846838
:1053C800A4050FD5D0E9054516682C4386F8A640F4
:1053D800048A1568A5F8A840408A1468A4F8AA00A9
:1053E80000E000231068A0F8903008691368A3F85B
:1053F8008000DCF8100058B11068BEFA8EF70388F8
:1054080023F01F03DB1B1F330380908A184390820D
:1054180044F24340C5F241200968D0600020116180
:10542800F0BD06207047818A02680020118070470D
:105438000168002200200A80704700680088C20BBB
:1054480000200A6070470000B0B543F22404C4F29B
:1054580008040025C8200121257100F082F8257074
:1054680020780028FCD1207840F00200207000BF8E
:1054780020788007FCD4002004F8020C14F8020CF1
:105488000028FBD1002004F11C0100BF11F81020F6
:1054980002F07F0201F8102011F91020002AFBD435
:1054A80001300328F2D1012000F00BF84EF2BB4284
:1054B8000021C4F2010201201170BDE8B04000F0E3
:1054C80027B880B50122EFF3108182F3108841F2EA
:1054D8006032C2F2000232F810308BB94EF2FE3C54
:1054E80045F61833C4F2010CC0F20103BCF800E021
:1054F80033F8103043EA0E0343F42543ACF8003088
:1055080032F81030013322F8103081F3108880BD52
:105518000122EFF3108182F3108841F26032C2F267
:10552800000232F8103023B132F81030013B22F873
:10553800103032F810208AB94EF2FE3CC4F2010C49
:1055480045F61832BCF80030C0F2010232F81000FB
:1055580043F4254222EA0000ACF8000081F31088E9
:10556800704741F28C02C2F20002126801FB00F09F
:1055780041F20021C0F27A018A420FD340F6FF01BE
:10558800C0F23D0111444DF68362C4F21B32A1FB07
:105598000212110DA0FB0101E9B11FE04CF6002138
:1055A800C3F69A3148F63813C0F24103B1FBF2F161
:1055B800984207D24FF47A7200FB02F0B0FBF1F088
:1055C800800808E08900B0FBF1F0984206D24FF459
:1055D8007A7100FB01F028B102F0FFB94FF0FF30FB
:1055E80002F0FBB970477047022818BF704741F2B4
:1055F800543045F64001C2F20000C0F2010100F04B
:1056080078BC8446C0E905130020CCF81C207047FC
:1056180010B542684EF2801E5169136A41F2185C57
:105628000029CEF2000EC2F2000C0ED401F01F02C7
:10563800012404FA02F24C094EF82420BFF34F8FDC
:10564800BFF36F8F00224CF82120D96B00290ED4AC
:1056580001F01F02012404FA02F24C094EF824203A
:10566800BFF34F8FBFF36F8F00224CF82120196CC6
:1056780000290ED401F01F02012404FA02F24C0999
:105688004EF82420BFF34F8FBFF36F8F00224CF8E2
:105698002120596C00290ED401F01F02012404FABC
:1056A80002F24C094EF82420BFF34F8FBFF36F8FDF
:1056B80000224CF82120996C00290ED401F01F0219
:1056C800012404FA02F24C094EF82420BFF34F8F4C
:1056D800BFF36F8F00224CF82120D96C00290ED41B
:1056E80001F01F02012404FA02F24C094EF82420AA
:1056F800BFF34F8FBFF36F8F00224CF82120196D35
:1057080000290ED401F01F02012303FA02F24B090B
:105718004EF82320BFF34F8FBFF36F8F00224CF852
:105728002120D0E90212002303608A6081680020EA
:105738004B6310BD80681346042A08BF0323032A5D
:1057480008BF042300EB830201390020D1647047AD
:10575800826800209164704781684FF000420A61B6
:1057680081684A6181688A61816800224A62816829
:1057780000208A6270472DE9F04383B00446002078
:10578800164601904FF0FF3002F0030900906A4678
:1057980020463346884603F06FFEA068056B019FDC
:1057A80097B931074FF0040158BF0221009AB30797
:1057B80001D44B4604E000EB81000123C264A068D9
:1057C800194300EB8100C26470060CD4022E3846DF
:1057D8000FD138466FB16A4620464146012303F08F
:1057E8004BFE019805E0A068016C41F4800101645A
:1057F800384625F4403141EA0741B9F1010F18BF95
:105808000D4625F04072B9F1000F18BF42EA006159
:10581800A2680020116303B0BDE8F08380B5D0E929
:10582800011E096AD1E904C38A6942F0004243F0C3
:105838000043CEF8143083689A6182684CF00043C4
:105848001361CA6983685A62096A82680020916292
:1058580080BD806841F28C03426EC2F200030132BF
:105868008A604EF22002C4F20102D0F82CC01268FD
:105878001B68C2F30260CCF3C35C03FA00F002F0C9
:105888000702D04020FA0CF04860012200200A608C
:10589800704700002DE9F04383B00D46097C0446AB
:1058A80000220123032988BF012203FA01F12261A2
:1058B8002A7CE16049F20001C4F2160101EB0221E1
:1058C8000020C4E90151D5E90612D5F82080C4E9C1
:1058D800051044F21007E261EFF3108283F3108899
:1058E800C4F208072B7C4FF000413E6821FA03F30D
:1058F80026EA03033B603B6882F310884FF4254394
:10590800A2681360A268D062A268D063A26890649B
:10591800D5E90027AB68032AA2684FEAC35308BF3A
:1059280003F58033D362A2681161A2685161A2684D
:105938009161A1684862A1688862D8F82410A268B9
:10594800D161D8F82810A2681162A1687A1E8A6607
:10595800A1684A662968D8F8749001904FF0FF3022
:10596800012900900ED031B968684FF0FF3101EB82
:105978005000009006E0E9686A462046002303F0DC
:105988007BFD0098A1684865A16888652968042995
:1059980003D3A168C865A1680866D8F87410DDF853
:1059A80004C0C9BB98F80010012916D12A68D8F894
:1059B8000410022A03D0032A03D1032205E0092296
:1059C80003E00922002908BF06220B0143EA8111DE
:1059D800114441EA090141F4807998F80810012935
:1059E8001AD12A68D8F80C10022A04D0032A05D143
:1059F8004FF4403208E04FF4102205E04FF4102233
:105A0800002908BF4FF4C0220B0543EA8151114415
:105A180041EA090141F0807961680023096A01F1CE
:105A2800540200BF91F86C60DE40F6070DD01846AE
:105A380052F82360A768042B08BF0320032B08BF74
:105A4800042007EB8000771EC7640133062BE9D1D9
:105A5800A06800218163A068C0F88810D8F8740095
:105A680030B9D8E90B01400340EA417049EA00091E
:105A780098F86C004FF4A0010028A06808BF4FF404
:105A8800AA0101642868012804D1A0680021C16422
:105A9800A0680165A1684FEA0C4040EA0C60C1F8B3
:105AA8003490A168C21C0A63A16801300863D4E974
:105AB800020141F21852C2F20002C1606B694EF253
:105AC800001046F20031CEF20000002BC4F20001B3
:105AD8001CD46F7CC6183F0186F8007342F8234037
:105AE80051F8237003F01F0627F4803741F823701C
:105AF80051F8237001255B0905FA06F600EB8305CA
:105B0800BFF35F8FC5F8806140F82360D8F83C3058
:105B1800002B1DD498F83470C6183F0186F800731E
:105B280042F8234051F8237003F01F0627F480370A
:105B380041F8237051F8237001255B0905FA06F630
:105B480000EB8305BFF35F8FC5F8806140F82360E1
:105B5800D8F84030002B1DD498F83570C6183F018E
:105B680086F8007342F8234051F8237003F01F06AB
:105B780027F4803741F8237051F8237001255B0919
:105B880005FA06F600EB8305BFF35F8FC5F8806161
:105B980040F82360D8F84430002B1DD498F83670AC
:105BA800C6183F0186F8007342F8234051F8237065
:105BB80003F01F0627F4803741F8237051F823704B
:105BC80001255B0905FA06F600EB8305BFF35F8F35
:105BD800C5F8806140F82360D8F84830002B1DD400
:105BE80098F83770C6183F0186F8007342F82340CA
:105BF80051F8237003F01F0627F4803741F823700B
:105C080051F8237001255B0905FA06F600EB8305B8
:105C1800BFF35F8FC5F8806140F82360D8F84C3037
:105C2800002B1DD498F83870C6183F0186F8007309
:105C380042F8234051F8237003F01F0627F48037F9
:105C480041F8237051F8237001255B0905FA06F61F
:105C580000EB8305BFF35F8FC5F8806140F82360D0
:105C6800D8F85030002B1DD498F83970C6183F0169
:105C780086F8007342F8234051F8232022F480323A
:105C880041F8232051F8231003F01F015B0901227A
:105C980000EB830702FA01F1BFF35F8FC7F88011A9
:105CA80040F8231045F25401C0F24701002021605A
:105CB80003B0BDE8F08383684A1E9A6643681B6890
:105CC8003BB94FF0FF3303EB510183685965836893
:105CD80099658168CB6ADB0707D14A6681684FF40A
:105CE800AA020A64D0E90201C16000207047D0E925
:105CF80002120020CA607047D0E9021200204A60F0
:105D080070478068C26A02F001024A60826C002013
:105D18000A607047D0E9021200208A607047B0B567
:105D2800044600690025C5712168204603F092FDEC
:105D380094F82600216984F82800A069B322C4E9F0
:105D48000750002084F82C5084F82A50CA71B0BD3E
:105D58008446C0E90D130020CCF83C207047B0B54C
:105D6800044600690025C5712168204603F072FDCC
:105D780094F82600216984F82800A0694EF280135F
:105D8800C4E90750B32084F82C5084F82A50C8710D
:105D98002069CEF20003C5712068E560016A012020
:105DA80001F01F0200FA02F2490943F82120BFF36B
:105DB8004F8FBFF36F8F2168496901F01F0200FA06
:105DC80002F2490943F82120BFF34F8FBFF36F8FC9
:105DD8002168C96901F01F0200FA02F2490943F873
:105DE8002120BFF34F8FBFF36F8F2168896901F0BE
:105DF8001F0200FA02F2490943F82120BFF34F8F2E
:105E0800BFF36F8FEFF3108180F3108844F204031F
:105E18002268C4F2080312781D68C2F10902904092
:105E280028431860186881F310880020B0BD10B5A9
:105E38000A784FF20003C4F2090303EB0222044676
:105E480002610160D1E902024FF0010CC4E90102CC
:105E5800D1E90B0260630020E263A063C4E9050096
:105E6800C4E9070084F8290084F82A0084F82B0084
:105E780084F82C00EFF3108E8CF3108844F20400A1
:105E88000B78C4F20800C3F1090302680CFA03F3A3
:105E98009A43026000688EF31088204603F0DAFC0B
:105EA80044F64311C5F249210020E16010BD9C462B
:105EB800012380F82AC003F089BD03460020C3E906
:105EC80001127047C0684BF2BD62CAF6B652104460
:105ED800B0FA80F0420900200A7070479C460023FF
:105EE80080F82AC003F072BD0146002200200A6033
:105EF800704780B545F25422C5F24F020260084649
:105F080005F0A2FA002080BD70B586B001A8012670
:105F1800049003A814460D46CDE90121ADF80C60A4
:105F280001F060FD41F26C30EFF3108186F31088C8
:105F3800C2F2000002683AB940F60352C4F20802FD
:105F4800002313704023137002680132026081F34A
:105F58001088E10340F60001C4F208014FEA152257
:105F680001D4EBB20CE001EB8216EBB256F82350E9
:105F780025F4803546F8235024F4803546F823501C
:105F880001EB8211012241F82340EFF3108182F3E3
:105F98001088026812B10268013A0260006838B9D4
:105FA80040F60350C4F208000022027080220270FA
:105FB80081F31088002006B070BD4FF4FF5000EA4E
:105FC800D1000423C4F20803C0580023CFF6FF739E
:105FD80043EA1040C9B2C84000F001010020116036
:105FE800704780B5C8B24FF0010C4FF4FF5303EA75
:105FF800D1030CFA00FE40F20C0CC4F2080C53F862
:106008000C10012A4CEA030C08D14FF4803202FA32
:1060180000F021EA000040EA0E0207E04FF4803267
:1060280021EA0E0102FA00F041EA00020020CCF851
:10603800002080BD6FF03F0000EA9100C9B200EB7C
:10604800810040F60001C4F208014058C0F3400145
:10605800002011607047C8B2012383409BB24FF4FF
:10606800803C002A08BF0CFA00F34FF4FF5000EA06
:10607800D1010822C4F2080200208B50704780B575
:10608800084605F0E1F9002080BD80B54FF4FF50C7
:1060980000EAD10140F2000CC4F2080C51F80CE0FF
